{
  "_format": "hh-sol-artifact-1",
  "contractName": "SRN",
  "sourceName": "contracts/SRNToken.sol",
  "abi": [
    {
      "inputs": [
        {
          "internalType": "string",
          "name": "name",
          "type": "string"
        },
        {
          "internalType": "string",
          "name": "symbol",
          "type": "string"
        },
        {
          "internalType": "uint8",
          "name": "decimals",
          "type": "uint8"
        },
        {
          "internalType": "uint256",
          "name": "totalSupply",
          "type": "uint256"
        }
      ],
      "stateMutability": "nonpayable",
      "type": "constructor"
    },
    {
      "anonymous": false,
      "inputs": [
        {
          "indexed": true,
          "internalType": "address",
          "name": "owner",
          "type": "address"
        },
        {
          "indexed": true,
          "internalType": "address",
          "name": "spender",
          "type": "address"
        },
        {
          "indexed": false,
          "internalType": "uint256",
          "name": "value",
          "type": "uint256"
        }
      ],
      "name": "Approval",
      "type": "event"
    },
    {
      "anonymous": false,
      "inputs": [
        {
          "indexed": true,
          "internalType": "address",
          "name": "from",
          "type": "address"
        },
        {
          "indexed": true,
          "internalType": "address",
          "name": "to",
          "type": "address"
        },
        {
          "indexed": false,
          "internalType": "uint256",
          "name": "value",
          "type": "uint256"
        }
      ],
      "name": "Transfer",
      "type": "event"
    },
    {
      "inputs": [
        {
          "internalType": "address",
          "name": "owner",
          "type": "address"
        },
        {
          "internalType": "address",
          "name": "spender",
          "type": "address"
        }
      ],
      "name": "allowance",
      "outputs": [
        {
          "internalType": "uint256",
          "name": "",
          "type": "uint256"
        }
      ],
      "stateMutability": "view",
      "type": "function"
    },
    {
      "inputs": [
        {
          "internalType": "address",
          "name": "spender",
          "type": "address"
        },
        {
          "internalType": "uint256",
          "name": "amount",
          "type": "uint256"
        }
      ],
      "name": "approve",
      "outputs": [
        {
          "internalType": "bool",
          "name": "",
          "type": "bool"
        }
      ],
      "stateMutability": "nonpayable",
      "type": "function"
    },
    {
      "inputs": [
        {
          "internalType": "address",
          "name": "account",
          "type": "address"
        }
      ],
      "name": "balanceOf",
      "outputs": [
        {
          "internalType": "uint256",
          "name": "",
          "type": "uint256"
        }
      ],
      "stateMutability": "view",
      "type": "function"
    },
    {
      "inputs": [],
      "name": "decimals",
      "outputs": [
        {
          "internalType": "uint8",
          "name": "",
          "type": "uint8"
        }
      ],
      "stateMutability": "view",
      "type": "function"
    },
    {
      "inputs": [
        {
          "internalType": "address",
          "name": "spender",
          "type": "address"
        },
        {
          "internalType": "uint256",
          "name": "subtractedValue",
          "type": "uint256"
        }
      ],
      "name": "decreaseAllowance",
      "outputs": [
        {
          "internalType": "bool",
          "name": "",
          "type": "bool"
        }
      ],
      "stateMutability": "nonpayable",
      "type": "function"
    },
    {
      "inputs": [
        {
          "internalType": "address",
          "name": "spender",
          "type": "address"
        },
        {
          "internalType": "uint256",
          "name": "addedValue",
          "type": "uint256"
        }
      ],
      "name": "increaseAllowance",
      "outputs": [
        {
          "internalType": "bool",
          "name": "",
          "type": "bool"
        }
      ],
      "stateMutability": "nonpayable",
      "type": "function"
    },
    {
      "inputs": [],
      "name": "name",
      "outputs": [
        {
          "internalType": "string",
          "name": "",
          "type": "string"
        }
      ],
      "stateMutability": "view",
      "type": "function"
    },
    {
      "inputs": [],
      "name": "symbol",
      "outputs": [
        {
          "internalType": "string",
          "name": "",
          "type": "string"
        }
      ],
      "stateMutability": "view",
      "type": "function"
    },
    {
      "inputs": [],
      "name": "totalSupply",
      "outputs": [
        {
          "internalType": "uint256",
          "name": "",
          "type": "uint256"
        }
      ],
      "stateMutability": "view",
      "type": "function"
    },
    {
      "inputs": [
        {
          "internalType": "address",
          "name": "recipient",
          "type": "address"
        },
        {
          "internalType": "uint256",
          "name": "amount",
          "type": "uint256"
        }
      ],
      "name": "transfer",
      "outputs": [
        {
          "internalType": "bool",
          "name": "",
          "type": "bool"
        }
      ],
      "stateMutability": "nonpayable",
      "type": "function"
    },
    {
      "inputs": [
        {
          "internalType": "address",
          "name": "from",
          "type": "address"
        },
        {
          "internalType": "address",
          "name": "to",
          "type": "address"
        },
        {
          "internalType": "uint256",
          "name": "amount",
          "type": "uint256"
        }
      ],
      "name": "transferFrom",
      "outputs": [
        {
          "internalType": "bool",
          "name": "",
          "type": "bool"
        }
      ],
      "stateMutability": "nonpayable",
      "type": "function"
    }
  ],
  "bytecode": "0x60806040523480156200001157600080fd5b5060405162000dc238038062000dc2833981016040819052620000349162000219565b8383600362000044838262000332565b50600462000053828262000332565b5050506200007f338360ff16600a6200006d919062000513565b62000079908462000528565b62000089565b5050505062000558565b6001600160a01b038216620000e45760405162461bcd60e51b815260206004820152601f60248201527f45524332303a206d696e7420746f20746865207a65726f206164647265737300604482015260640160405180910390fd5b8060026000828254620000f8919062000542565b90915550506001600160a01b038216600081815260208181526040808320805486019055518481527fddf252ad1be2c89b69c2b068fc378daa952ba7f163c4a11628f55a4df523b3ef910160405180910390a35050565b505050565b634e487b7160e01b600052604160045260246000fd5b600082601f8301126200017c57600080fd5b81516001600160401b038082111562000199576200019962000154565b604051601f8301601f19908116603f01168101908282118183101715620001c457620001c462000154565b81604052838152602092508683858801011115620001e157600080fd5b600091505b83821015620002055785820183015181830184015290820190620001e6565b600093810190920192909252949350505050565b600080600080608085870312156200023057600080fd5b84516001600160401b03808211156200024857600080fd5b62000256888389016200016a565b955060208701519150808211156200026d57600080fd5b506200027c878288016200016a565b935050604085015160ff811681146200029457600080fd5b6060959095015193969295505050565b600181811c90821680620002b957607f821691505b602082108103620002da57634e487b7160e01b600052602260045260246000fd5b50919050565b601f8211156200014f57600081815260208120601f850160051c81016020861015620003095750805b601f850160051c820191505b818110156200032a5782815560010162000315565b505050505050565b81516001600160401b038111156200034e576200034e62000154565b62000366816200035f8454620002a4565b84620002e0565b602080601f8311600181146200039e5760008415620003855750858301515b600019600386901b1c1916600185901b1785556200032a565b600085815260208120601f198616915b82811015620003cf57888601518255948401946001909101908401620003ae565b5085821015620003ee5787850151600019600388901b60f8161c191681555b5050505050600190811b01905550565b634e487b7160e01b600052601160045260246000fd5b600181815b8085111562000455578160001904821115620004395762000439620003fe565b808516156200044757918102915b93841c939080029062000419565b509250929050565b6000826200046e575060016200050d565b816200047d575060006200050d565b8160018114620004965760028114620004a157620004c1565b60019150506200050d565b60ff841115620004b557620004b5620003fe565b50506001821b6200050d565b5060208310610133831016604e8410600b8410161715620004e6575081810a6200050d565b620004f2838362000414565b8060001904821115620005095762000509620003fe565b0290505b92915050565b60006200052183836200045d565b9392505050565b80820281158282048414176200050d576200050d620003fe565b808201808211156200050d576200050d620003fe565b61085a80620005686000396000f3fe608060405234801561001057600080fd5b50600436106100a95760003560e01c80633950935111610071578063395093511461012357806370a082311461013657806395d89b411461015f578063a457c2d714610167578063a9059cbb1461017a578063dd62ed3e1461018d57600080fd5b806306fdde03146100ae578063095ea7b3146100cc57806318160ddd146100ef57806323b872dd14610101578063313ce56714610114575b600080fd5b6100b66101a0565b6040516100c391906106a4565b60405180910390f35b6100df6100da36600461070e565b610232565b60405190151581526020016100c3565b6002545b6040519081526020016100c3565b6100df61010f366004610738565b61024c565b604051601281526020016100c3565b6100df61013136600461070e565b610270565b6100f3610144366004610774565b6001600160a01b031660009081526020819052604090205490565b6100b6610292565b6100df61017536600461070e565b6102a1565b6100df61018836600461070e565b610321565b6100f361019b366004610796565b610337565b6060600380546101af906107c9565b80601f01602080910402602001604051908101604052809291908181526020018280546101db906107c9565b80156102285780601f106101fd57610100808354040283529160200191610228565b820191906000526020600020905b81548152906001019060200180831161020b57829003601f168201915b5050505050905090565b600033610240818585610362565b60019150505b92915050565b60003361025a858285610486565b610265858585610500565b506001949350505050565b6000336102408185856102838383610337565b61028d9190610803565b610362565b6060600480546101af906107c9565b600033816102af8286610337565b9050838110156103145760405162461bcd60e51b815260206004820152602560248201527f45524332303a2064656372656173656420616c6c6f77616e63652062656c6f77604482015264207a65726f60d81b60648201526084015b60405180910390fd5b6102658286868403610362565b600061032e338484610500565b50600192915050565b6001600160a01b03918216600090815260016020908152604080832093909416825291909152205490565b6001600160a01b0383166103c45760405162461bcd60e51b8152602060048201526024808201527f45524332303a20617070726f76652066726f6d20746865207a65726f206164646044820152637265737360e01b606482015260840161030b565b6001600160a01b0382166104255760405162461bcd60e51b815260206004820152602260248201527f45524332303a20617070726f766520746f20746865207a65726f206164647265604482015261737360f01b606482015260840161030b565b6001600160a01b0383811660008181526001602090815260408083209487168084529482529182902085905590518481527f8c5be1e5ebec7d5bd14f71427d1e84f3dd0314c0f7b2291e5b200ac8c7c3b925910160405180910390a3505050565b60006104928484610337565b905060001981146104fa57818110156104ed5760405162461bcd60e51b815260206004820152601d60248201527f45524332303a20696e73756666696369656e7420616c6c6f77616e6365000000604482015260640161030b565b6104fa8484848403610362565b50505050565b6001600160a01b0383166105645760405162461bcd60e51b815260206004820152602560248201527f45524332303a207472616e736665722066726f6d20746865207a65726f206164604482015264647265737360d81b606482015260840161030b565b6001600160a01b0382166105c65760405162461bcd60e51b815260206004820152602360248201527f45524332303a207472616e7366657220746f20746865207a65726f206164647260448201526265737360e81b606482015260840161030b565b6001600160a01b0383166000908152602081905260409020548181101561063e5760405162461bcd60e51b815260206004820152602660248201527f45524332303a207472616e7366657220616d6f756e7420657863656564732062604482015265616c616e636560d01b606482015260840161030b565b6001600160a01b03848116600081815260208181526040808320878703905593871680835291849020805487019055925185815290927fddf252ad1be2c89b69c2b068fc378daa952ba7f163c4a11628f55a4df523b3ef910160405180910390a36104fa565b600060208083528351808285015260005b818110156106d1578581018301518582016040015282016106b5565b506000604082860101526040601f19601f8301168501019250505092915050565b80356001600160a01b038116811461070957600080fd5b919050565b6000806040838503121561072157600080fd5b61072a836106f2565b946020939093013593505050565b60008060006060848603121561074d57600080fd5b610756846106f2565b9250610764602085016106f2565b9150604084013590509250925092565b60006020828403121561078657600080fd5b61078f826106f2565b9392505050565b600080604083850312156107a957600080fd5b6107b2836106f2565b91506107c0602084016106f2565b90509250929050565b600181811c908216806107dd57607f821691505b6020821081036107fd57634e487b7160e01b600052602260045260246000fd5b50919050565b8082018082111561024657634e487b7160e01b600052601160045260246000fdfea264697066735822122007d4c15bef4c6f177c7718428f8ed0f387101251692ed9a59320e3069b9d8cda64736f6c63430008130033",
  "linkReferences": {},
  "deployedLinkReferences": {}
}